:100000000C9470000C94B5050C948E050C9498001B
:100010000C9498000C9498000C9498000C94980000
:100020000C9498000C9498000C9498000C949800F0
:100030000C9498000C9498000C9498000C949800E0
:100040000C9444050C9498000C9402060C94DC0566
:100050000C9498000C9498000C9498000C949800C0
:100060000C9498000C9498003B07E107E1070E07F9
:100070003307E1077907E107E107E107E1077907BE
:10008000E107E1070B0711071407E1073807000034
:100090000000240027002A0000000000250028009E
:1000A0002B000404040404040404020202020202F9
:1000B000030303030303010204081020408001022C
:1000C00004081020010204081020000000080002AB
:1000D0000100000304070000000000000000FA080F
:1000E00011241FBECFEFD8E0DEBFCDBF24E0A6E8CD
:1000F000B3E001C01D92AF33B207E1F713E0A0E017
:10010000B1E0E0EEF2E102C005900D92A638B10731
:10011000D9F710E0C0E7D0E004C02197FE010E94AB
:100120006309CF36D107C9F70E9434060C946E09D3
:100130000C94000090E0FC01E653FF4F3491FC0169
:10014000EA54FF4F2491FC01EE55FF4FE491EE235A
:1001500009F43BC0332339F1333091F038F43130B6
:10016000A9F0323001F584B58F7D12C0373091F09F
:100170003830A1F03430B9F4809180008F7D03C015
:10018000809180008F77809380000DC084B58F7739
:1001900084BD09C08091B0008F7703C08091B0000A
:1001A0008F7D8093B000F0E0EE0FFF1FE856FF4F09
:1001B000A591B4918FB7F894EC91611103C020958B
:1001C0002E2301C02E2B2C938FBF0895CF93DF9346
:1001D00090E0FC01EA54FF4F2491FC01EE55FF4FE3
:1001E0008491882361F190E0880F991FFC01E25708
:1001F000FF4FC591D491FC01E856FF4FA591B491F2
:10020000611109C09FB7F894888120958223888363
:10021000EC912E230BC0623061F49FB7F8943881C3
:10022000822F809583238883EC912E2B2C939FBF64
:1002300006C08FB7F894E8812E2B28838FBFDF91FB
:10024000CF9108951F93CF93DF93182FEB0161E0B7
:100250000E94E600209711F460E004C0CF3FD10572
:1002600039F461E0812FDF91CF911F910C949A00B6
:10027000E12FF0E0E653FF4FE491E330F9F048F46A
:10028000E130B9F0E230A1F584B5806284BDC8BD2B
:1002900034C0E730E9F0E83019F1E43049F58091F5
:1002A0008000806280938000D0938B00C0938A008E
:1002B00024C084B5806884BDC7BD1FC08091800004
:1002C000806880938000D0938900C093880015C017
:1002D0008091B00080688093B000C093B3000DC0DF
:1002E0008091B00080628093B000C093B40005C0DC
:1002F000C038D1050CF0B5CFAFCFDF91CF911F91B2
:1003000008953FB7F89480919C0390919D03A0912C
:100310009E03B0919F0326B5A89B05C02F3F19F0FF
:100320000196A11DB11D3FBFBA2FA92F982F882775
:10033000820F911DA11DB11DBC01CD0142E0660FD0
:10034000771F881F991F4A95D1F708958F929F9222
:10035000AF92BF92CF92DF92EF92FF926B017C013E
:100360000E9481014B015C01C114D104E104F1043C
:10037000F1F00E948101DC01CB0188199909AA09D9
:10038000BB09883E9340A105B10570F321E0C21A74
:10039000D108E108F10888EE880E83E0981EA11CC0
:1003A000B11CC114D104E104F10419F7DDCFFF90B1
:1003B000EF90DF90CF90BF90AF909F908F90089577
:1003C0002FB7F894609198037091990380919A03E4
:1003D00090919B032FBF08950F931F930E94E001FC
:1003E0006093A8037093A9038093AA039093AB032F
:1003F000E091A003F091A1030484F585E02D80EA4B
:1004000093E0099597FF1FC00E94E0010091A803A7
:100410001091A9032091AA033091AB03DC01CB0119
:10042000801B910BA20BB30B0091A4031091A503A9
:100430002091A6033091A70380179107A207B30765
:10044000B8F28FEF9FEF1F910F910895FF920F93D6
:100450001F93CF93DF9300D000D0CDB7DEB70E94BB
:10046000EC01FC0197FD11C08D32910591F0C09710
:100470000A9778F0E091A003F091A1030284F3853C
:10048000E02D80EA93E00995EACF60E070E0CB01CF
:100490004CC020E030E0A901F12CE130F105F1F091
:1004A000ED32F105C9F0CF01C0970A97B8F4AAE080
:1004B000B0E00E9427098F01FF0F220B330BDC01F4
:1004C000CB01800F911FA21FB31F9C01AD012053D0
:1004D00031094109510902C0FF24F394E091A003BE
:1004E000F091A1030284F385E02D80EA93E0298353
:1004F0003A834B835C8309950E94EC01FC01C09711
:1005000029813A814B815C810A9738F2E130F1050B
:1005100021F2FF2041F066277727CB01621B730B86
:10052000840B950B02C0CA01B9010F900F900F9078
:100530000F90DF91CF911F910F91FF90089581E06F
:10054000809396031092950380938B030E94E001A1
:1005500060938D0370938E0380938F039093900329
:10056000089581E0809395031092960380938B0306
:100570000E94E00160938D0370938E0380938F033C
:100580009093900308950895CF92DF92EF92FF9297
:100590000F931F93CF93DF936C017A018B01C0E01F
:1005A000D0E0CE15DF0589F0D8016D918D01D6011F
:1005B000ED91FC910190F081E02DC6010995892B08
:1005C00011F47E0102C02196ECCFC701DF91CF91DB
:1005D0001F910F91FF90EF90DF90CF9008950895B5
:1005E00080E090E00895FC01538D448D252F30E08C
:1005F000842F90E0821B930B541710F0CF96089530
:1006000001970895FC01918D828D981761F0828D7C
:10061000DF01A80FB11D5D968C91928D9F5F9F7336
:10062000928F90E008958FEF9FEF0895FC01918DD8
:10063000828D981731F0828DE80FF11D858D90E045
:1006400008958FEF9FEF0895FC01918D228D892FE2
:1006500090E0805C9F4F821B91098F7399270895CA
:1006600080EA93E00E94240321E0892B09F420E032
:10067000822F0895FC01848DDF01A80FB11DA35ABC
:10068000BF4F2C91848D90E001968F739927848FB2
:10069000A689B7892C93A089B1898C9180648C93A9
:1006A000938D848D981306C00288F389E02D808194
:1006B0008F7D80830895EF92FF920F931F93CF93C6
:1006C000DF93EC0181E0888F9B8D8C8D981305C0A2
:1006D000E889F989808185FD24C0F62E0B8D10E014
:1006E0000F5F1F4F0F731127E02E8C8DE8120CC087
:1006F0000FB607FCFACFE889F989808185FFF5CF2D
:10070000CE010E943A03F1CF8B8DFE01E80FF11D5F
:10071000E35AFF4FF0820B8FEA89FB898081806268
:1007200007C0EE89FF896083E889F9898081806448
:10073000808381E090E0DF91CF911F910F91FF9036
:10074000EF900895CF93DF93EC01888D8823C9F053
:10075000EA89FB89808185FD05C0A889B9898C91CA
:1007600086FD0FC00FB607FCF5CF808185FFF2CF65
:10077000A889B9898C9185FFEDCFCE010E943A03FB
:10078000E7CFDF91CF91089580E090E0892B29F0A9
:100790000E94300381110C940000089561E084E010
:1007A0000E949A0061E085E00E949A0061E086E084
:1007B0000E949A0061E087E00E949A006FEF70E06B
:1007C00089E00E9422016FEF70E08AE00E9422011E
:1007D0006FEF70E08BE00E94220161E08CE00E94EC
:1007E0009A0061E08DE00C949A0060E084E00E9441
:1007F0009A0060E085E00E949A0060E086E00E9436
:100800009A0060E087E00E949A0060E070E089E072
:100810000E94220160E070E08AE00E94220160E014
:1008200070E08BE00E94220160E08CE00E949A0060
:1008300060E08DE00C949A00CF93DF9310923E0419
:1008400010923D04C0913D04D0913E04CF3FD105AC
:1008500009F050F4BE0189E00E9422012196D09354
:100860003E04C0933D04EECFDF91CF9108950F93E6
:100870001F93CF93DF9310923E0410923D040FEF2D
:1008800010E0C0913D04D0913E04CF3FD10509F066
:1008900060F4B8016C1B7D0B89E00E942201219657
:1008A000D0933E04C0933D04ECCFDF91CF911F91D4
:1008B0000F910895009769F0FC0101900020E9F77D
:1008C0003197AF01481B590BBC0180EA93E00C94AF
:1008D000C40280E090E00895CF93DF930E945A0411
:1008E000EC018EE191E00E945A048C0F9D1FDF9174
:1008F000CF9108958F929F92AF92BF920F931F93C3
:10090000CF93DF93CDB7DEB7A1970FB6F894DEBFD4
:100910000FBECDBF19A2423008F44AE08E010F5D30
:100920001F4F842E912CA12CB12CA50194010E9463
:100930004109E62FB901CA0101501109EA3014F446
:10094000E05D01C0E95CD801EC93232B242B252B1F
:1009500061F7C8010E945A04A1960FB6F894DEBF51
:100960000FBECDBFDF91CF911F910F91BF90AF9080
:100970009F908F90089581E291E00E946C048CE337
:1009800091E00E945A040E94E00120E63AEE40E025
:1009900050E00E944109CA01B9014AE00E947A046C
:1009A00086E491E00E946C0488E491E00E946C046B
:1009B0008DE591E00E946C0482E791E00E945A0468
:1009C000609108017091090180910A0190910B01D9
:1009D00028EE33E040E050E00E944109CA01B9012D
:1009E0004AE00E947A048CEC92E00E946C0480EB56
:1009F00091E00E945A046091040170910501809178
:100A00000601909107014AE00E947A0486E491E091
:100A10000E946C0488E491E00E946C0487EF91E0EE
:100A20000E946C048AE092E00E946C0488E192E0EB
:100A30000E946C0483E392E00E946C0486E592E0DD
:100A40000E946C048BE692E00E946C048EE792E0B8
:100A50000E946C048EE892E00E946C0489EA92E0A5
:100A60000E946C048EEC92E00E946C0482EF92E093
:100A70000E946C0488E491E00E946C048AE193E097
:100A80000C946C040E9469091F920F920FB60F928A
:100A900011242F933F938F939F93AF93BF93809194
:100AA000980390919903A0919A03B0919B03309180
:100AB000970323E0230F2D3720F40196A11DB11DCC
:100AC00005C026E8230F0296A11DB11D20939703B0
:100AD0008093980390939903A0939A03B0939B03F8
:100AE00080919C0390919D03A0919E03B0919F03E0
:100AF0000196A11DB11D80939C0390939D03A0932B
:100B00009E03B0939F03BF91AF919F918F913F91AF
:100B10002F910F900FBE0F901F9018951F920F925C
:100B20000FB60F9211242F933F934F935F936F93C0
:100B30007F938F939F93AF93BF93EF93FF93E09136
:100B40000201F09103010995FF91EF91BF91AF91DF
:100B50009F918F917F916F915F914F913F912F91D5
:100B60000F900FBE0F901F9018951F920F920FB607
:100B70000F9211242F933F934F935F936F937F9323
:100B80008F939F93AF93BF93EF93FF93E0910001F7
:100B9000F09101010995FF91EF91BF91AF919F9164
:100BA0008F917F916F915F914F913F912F910F9016
:100BB0000FBE0F901F9018951F920F920FB60F92B5
:100BC00011242F933F934F935F936F937F938F9352
:100BD0009F93AF93BF93EF93FF9380EA93E00E94BC
:100BE0003A03FF91EF91BF91AF919F918F917F91C8
:100BF0006F915F914F913F912F910F900FBE0F908A
:100C00001F9018951F920F920FB60F9211242F93D9
:100C10008F939F93EF93FF93E091B003F091B10313
:100C20008081E091B603F091B70382FD12C09081FC
:100C30008091B9038F5F8F732091BA03821751F0AF
:100C4000E091B903F0E0E056FC4F958F8093B90333
:100C500001C08081FF91EF919F918F912F910F9013
:100C60000FBE0F901F901895789484B5826084BD54
:100C700084B5816084BD85B5826085BD85B58160A0
:100C800085BD80916E00816080936E00109281001E
:100C900080918100826080938100809181008160D9
:100CA000809381008091800081608093800080919A
:100CB000B10084608093B1008091B0008160809326
:100CC000B00080917A00846080937A0080917A00ED
:100CD000826080937A0080917A00816080937A00AC
:100CE00080917A00806880937A001092C100E09130
:100CF000B003F091B10382E08083E091AC03F09106
:100D0000AD031082E091AE03F091AF0380E18083E8
:100D10001092B803E091B403F091B50386E08083AC
:100D2000E091B203F091B303808180618083E09110
:100D3000B203F091B303808188608083E091B203B5
:100D4000F091B303808180688083E091B203F091D9
:100D5000B30380818F7D80830E94BB0462E082E0C8
:100D60000E94E60062E083E00E94E60061E089E024
:100D70000E94E60061E08AE00E94E60061E08BE00C
:100D80000E94E60061E084E00E94E60061E085E008
:100D90000E94E60061E086E00E94E60061E087E0F4
:100DA0000E94E6008FE992E0909301018093000198
:100DB000809169008C7F826080936900E89A81EB62
:100DC00092E0909303018093020180916900837FF8
:100DD000886080936900E99A61E08CE00E94E600F7
:100DE00061E08DE00E94E6000E94F50380EA93E056
:100DF0000E94240397FDE5C080EA93E00E9402036D
:100E0000FC01E156F109E331F10508F0DAC0EC5CD0
:100E1000FF4F0C9463090E94F503D3C00E94CE03D8
:100E2000D0C00E94B102CDC00E949F0280E293E038
:100E30000E946C04C6C0809195038111C2C084E3F6
:100E400093E00E946C040E94CE0364E670E080E0B0
:100E500090E00E94A6010E94F50364E670E080E045
:100E600090E00E94A60180919603882321F3A9C0F7
:100E70000E94BB04A6C08AE393E00E946C040E9417
:100E8000260260939103709392038093930390934F
:100E9000940380EA93E00E9402038236910509F0F0
:100EA00090C082E593E00E945A0460919103709192
:100EB000920380919303909194034AE00E947A04F4
:100EC0008CEC92E00E946C0420919103309192038B
:100ED0004091930350919403A8EEB3E00E94270938
:100EE000609308017093090180930A0190930B01AC
:100EF00068C08AE393E00E946C040E94260260931B
:100F0000910370939203809393039093940380EAE8
:100F100093E00E9402038236910509F052C08CE6EC
:100F200093E00E945A046091910370919203809122
:100F30009303909194034AE00E947A0486E491E03E
:100F40000E946C048091910390919203A09193036D
:100F5000B09194038093040190930501A09306013E
:100F6000B09307012EC061E08DE00E949A000E94BC
:100F7000E001C0908D03D0908E03E0908F03F0903D
:100F80009003DC01CB018C199D09AE09BF09C0900B
:100F90000801D0900901E0900A01F0900B01C816F9
:100FA000D906EA06FB0670F180918C0381110EC010
:100FB00080918B0381110AC06FEF70E089E00E947D
:100FC0002201809195038111CECF5BC00E94F50371
:100FD00010928B0360E084E00E949A0061E085E05B
:100FE0000E949A0061E086E00E949A0060E087E03B
:100FF0000E949A000E941C0481E080938A03109250
:101000008C03DACF109295030E9437040E94F503F7
:101010000E94E001609386037093870380938803A6
:1010200090938903CECF61E08CE00E949A000E94E9
:10103000E001C0908D03D0908E03E0908F03F0907C
:101040009003DC01CB018C199D09AE09BF09C0904A
:101050000801D0900901E0900A01F0900B01C81638
:10106000D906EA06FB0670F180918A0381110EC051
:1010700080918B0381110AC06FEF70E089E00E94BC
:101080002201809196038111CECF2DC00E94F503DD
:1010900010928B0361E084E00E949A0060E085E09A
:1010A0000E949A0061E086E00E949A0060E087E07A
:1010B0000E949A000E941C0410928A0381E080938F
:1010C0008C03DACF109296030E9437040E94F50336
:1010D0000E94E001609386037093870380938803E6
:1010E00090938903CECF0E94E001C0908603D090F8
:1010F0008703E0908803F09089039B01AC012C19D1
:101100003D094E095F0969017A012091040130917E
:1011100005014091060150910701A0E6BAEE0E9438
:101120002709C616D706E806F90608F460C00E942B
:10113000E0016B017C0160E084E00E949A0060E0C5
:1011400085E00E949A0061E086E00E949A0060E0DB
:1011500087E00E949A000E941C0461E08CE00E94DB
:101160009A0061E08DE00E949A000E94E001DC019B
:10117000CB018C199D09AE09BF0981319742A105A8
:10118000B10548F580919503811125C060E086E0A6
:101190000E949A0060E08CE00E949A0060E08DE07E
:1011A0000E949A0068EC70E080E090E00E94A60146
:1011B00061E086E00E949A0061E08CE00E949A0063
:1011C00061E08DE00E949A0068EC70E080E090E0C1
:1011D0000E94A601CACF0E94F5030E94E00160931D
:1011E00086037093870380938803909389030E94FA
:1011F000C403FCCDE0EAF3E01382128288EE93E0B0
:10120000A0E0B0E084839583A683B78380E191E07A
:101210009183808385EC90E09587848784EC90E0CF
:101220009787868780EC90E0918B808B81EC90E0B3
:10123000938B828B82EC90E0958B848B86EC90E094
:10124000978B868B118E128E138E148E08950E94AA
:101250003209A59F900DB49F900DA49F800D911D04
:1012600011240895A29FB001B39FC001A39F700DE8
:10127000811D1124911DB29F700D811D1124911D9E
:101280000895A1E21A2EAA1BBB1BFD010DC0AA1FC7
:10129000BB1FEE1FFF1FA217B307E407F50720F0DF
:1012A000A21BB30BE40BF50B661F771F881F991F5A
:1012B0001A9469F760957095809590959B01AC01A3
:1012C000BD01CF010895EE0FFF1F0590F491E02DB1
:1012D000099481E090E0F8940C946E09F894FFCFA3
:1012E000C302C302050000003075000000000000CA
:1012F0005B03C402F302A2032403020316030D0AD4
:101300000068656C6C6F202D206F70746970657358
:1013100073692076312068657265210072756E747C
:10132000696D653A20006D002D2D2D2D2D2D2D2D53
:101330002D2D2D2D2D2D2D2D2D2D2D2D004D7920AB
:1013400063757272656E742053657474696E677329
:101350003A00737461794163746976652028746911
:101360006D6520746F207374617920616374697690
:1013700065206166746572206120627574746F6E99
:10138000207761732070726573736564293A200059
:101390006C6967687453686F77202874696D65207D
:1013A000746F20737461727420746865206C69674F
:1013B00068742073686F77206166746572206E6F41
:1013C00020627574746F6E2077617320707265731C
:1013D000736564293A2000506F737369626C6520ED
:1013E000436F6D6D616E64733A007C73656E647CEF
:1013F000616374696F6E7C007C206F20207C747543
:10140000726E73206F6620746865206C69676874FB
:10141000737C007C206420207C7475726E206F6E5B
:1014200020616C6C20706F737369626C65206C69ED
:10143000676874737C007C207020207C72756E203D
:1014400070657373696D6973747C007C20712020F2
:101450007C72756E206F7074696D697374007C2086
:101460006520207C667265616B206F7574007C203E
:101470007320207C72657072696E74207468697361
:10148000206D657373616765007C206120207C613D
:10149000646A7573742073746179416374697665E5
:1014A00020746F206E207365636F6E6473007C2000
:1014B0006C20207C61646A757374206C6967687441
:1014C00053686F7720746F206E206D696E75746538
:1014D00073007C206720207C61646A757374206CC3
:1014E0006967687453686F7720666C6173682072EF
:1014F00061746520696E206D7300726561647900A6
:10150000736574206F7074696D69737420536572AC
:1015100069616C0070617274790053656E64207645
:10152000616C756520666F6C6C6F776420627920E2
:10153000620061646A757374696E6720737461799F
:1015400041637469766520746F3A200061646A753E
:101550007374696E67206C6967687453686F77206D
:06156000746F3A20000048
:00000001FF
